:100000000C94CE070C9417080C9417080C9417083E
:100010000C9417080C9417080C9417080C941708E4
:100020000C9417080C9417080C9417080C94A52D21
:100030000C94542E0C94FA240C9417080C94170862
:100040000C9417080C9417080C9417080C946E2540
:100050000C9417080C9417080C9417080C941708A4
:100060000C9417080C9417080C9417080C94170894
:100070000C941708BC09BE09C909C009C209C40902
:10008000C609C809CB09CD09CF09DA09D109D309B5
:10009000D509D709D909DC098C1A8C1ABE1ABE1ADF
:1000A000FC1A4A1C4A1C4A1C1C1B4A1CC91BC91BA3
:1000B0003A1C4A1C4A1C431CD61BD61BD61BD61BFB
:1000C000D61BD61BD61BD61BD61BD61BD61BD61BA8
:1000D000D61BD61BD61BD61BE71BF51BFC1B031C14
:1000E0000D1CD51CD51CE71CE71CDE1CE71CE71CFF
:1000F000E71CD51CD51CE31CE71CE71CE31C66278A
:10010000542778271A265128512851275128512839
:10011000A5275128B927312851285128512851287D
:10012000ED2751285128D6275128912751285128A9
:100130004B284B284B284B284B284B284B284B2827
:100140004B284D28512866274927512851285128E6
:1001500051285128512851285128512851284D28DB
:1001600051285128512751284928492849284928E8
:10017000492849284928492849284D28C12EE82ED0
:10018000DA2FE82EDA2F342F572FDA2FAD2FBC2F8E
:10019000290014001A000800150017001C001800A0
:1001A0000C00120013002A002B4304001600070065
:1001B00009000A000B000D000E000F003300340090
:1001C000E1001D001B0006001900050011001000D1
:1001D000360037003800D95CE000E200E30065003B
:1001E00002512C002C0001515000510052004F00D0
:1001F00035001E001F0020002100220023002400E3
:100200002500260027004C000100C25CC35CC95CCD
:10021000CA5C010001002D002E002F0030003100CB
:10022000010044004500680069006A006B006C0032
:100230006D006E006F000100010001000100390037
:1002400001000100010001004A004E004B004D007A
:1002500035021E021F022002210222022302240272
:100260002502260227024C000100010001000100C6
:100270000100010001002D022E022F023002310286
:1002800001003A003B003C003D003E003F004000C2
:10029000410042004300010001000100010039005B
:1002A00001000100010001004A004E004B004D001A
:1002B0002900B200B500B100B30001000100010047
:1002C00001000100460001000100010001000100E1
:1002D0000100010001000100010001000100010016
:1002E0000100010001000100010001000100010006
:1002F00001000100010001000100010001000100F6
:100300000100010001000100F200F100F000F30023
:1003100044454255473A20656E61626C65642E0A19
:10032000000A002530313662003A2000253032586C
:10033000000A722F63203031323334353637383982
:100340004142434445460A007267626C69676874BB
:100350002074696D65722064697361626C652E0A30
:10036000007267626C696768742074696D657220D9
:10037000656E61626C65642E0A007267626C696703
:1003800068742073657420687376205B4E4F454512
:1003900050524F4D5D3A2025752C25752C25750A38
:1003A000007267626C696768742073657420687393
:1003B00076205B454550524F4D5D3A2025752C25E2
:1003C000752C25750A007267626C69676874207203
:1003D00061696E626F7720736574206873763A2066
:1003E00025642C25642C25642C25750A007267620F
:1003F0006C696768742064697361626C65205B4531
:100400004550524F4D5D3A207267626C696768745F
:100410005F636F6E6669672E656E61626C65203D15
:100420002025750A007267626C6967687420656EC2
:1004300061626C65205B454550524F4D5D3A2072BC
:1004400067626C696768745F636F6E6669672E6563
:100450006E61626C65203D2025750A007267626CD2
:100460006967687420746F67676C65205B454550E9
:10047000524F4D5D3A207267626C696768745F63C2
:100480006F6E6669672E656E61626C65203D202522
:10049000750A007267626C69676874206D6F6465C5
:1004A000205B4E4F454550524F4D5D3A2025750A11
:1004B000007267626C69676874206D6F6465205BA9
:1004C000454550524F4D5D3A2025750A00726762CE
:1004D0006C696768745F696E6974207267626C69C1
:1004E0006768745F636F6E6669672E6D6F64652001
:1004F0003D20302E205772697465206465666175F1
:100500006C742076616C75657320746F204545505E
:10051000524F4D2E0A007267626C696768745F699A
:100520006E6974206565636F6E6669672069732004
:100530006E6F7420656E61626C65642E0A0072676E
:10054000626C696768745F696E6974207374617244
:1005500074210A007267626C696768745F696E690A
:10056000742063616C6C65642E0A007267626C694A
:100570006768745F636F6E6669672E737065656424
:10058000203D2025640A007267626C696768745FA9
:10059000636F6E6669672E76616C203D2025640A64
:1005A000007267626C696768745F636F6E66696723
:1005B0002E736174203D2025640A007267626C69A5
:1005C0006768745F636F6E6669672E687565203D46
:1005D0002025640A007267686C696768745F636FDE
:1005E0006E6669672E6D6F6465203D2025640A0084
:1005F0007267626C696768745F636F6E6669672EA5
:10060000656E61626C65203D2025640A0072676238
:100610006C696768745F636F6E6669672065707286
:100620006F6D0A0000047F3F1F6432146432147837
:100630003C1E1E140A052223252628292A2C2D2F8C
:100640003032333536383A3B3D3E404243454749E8
:100650004A4C4E5051535557595A5C5E606264661D
:1006600068696B6D6F71737577797B7D7F81838529
:1006700087898A8C8E90929496989A9C9E9FA1A32B
:10068000A5A7A8AAACAEAFB1B3B4B6B8B9BBBCBE4F
:10069000BFC1C2C3C5C6C7C9CACBCCCDCED0D1D2CB
:1006A000D2D3D4D5D6D7D7D8D9D9DADADBDBDBDCCD
:1006B000DCDCDCDCDDDDDDDDDCDCDCDCDCDBDBDB79
:1006C000DADAD9D9D8D7D7D6D5D4D3D2D2D1D0CED9
:1006D000CDCCCBCAC9C7C6C5C3C2C1BFBEBCBBB9DE
:1006E000B8B6B4B3B1AFAEACAAA8A7A5A3A19F9E5C
:1006F0009C9A98969492908E8C8A89878583817F24
:100700007D7B79777573716F6D6B69686664626004
:100710005E5C5A5957555351504E4C4A49474543D0
:1007200042403E3D3B3A3836353332302F2D2C2A6D
:10073000292826252322FFAA7F554000000000001B
:10074000000000000001010101010101010102029C
:10075000020202020202030303030303030404046C
:10076000040405050505050606060606070707072E
:10077000080808080909090A0A0A0B0B0B0C0C0CDB
:100780000D0D0D0E0E0E0F0F101010111112121371
:10079000131414151516161717181819191A1A1BE9
:1007A0001C1C1D1D1E1F1F20212122232324252543
:1007B00026272828292A2B2C2C2D2E2F3031313278
:1007C000333435363738393A3B3C3D3E3F40414281
:1007D000434445464748494B4C4D4E4F5052535465
:1007E000555758595A5C5D5E606163646567686A15
:1007F0006B6C6E6F7172747677797A7C7D7F818293
:10080000848687898B8D8E9092949597999B9D9FD6
:10081000A1A2A4A6A8AAACAEB0B2B4B6B9BBBDBFE3
:10082000C1C3C5C8CACCCED0D3D5D7DADCDEE1E3AC
:10083000E6E8EAEDEFF2F4F7F9FCFF0A00253032C2
:100840005820006B6579626F6172645F7265706FCA
:1008500072743A20000A0025303258006B657962C4
:100860006F6172645F7365745F6C65643A200064E5
:10087000656C5F6B65795F6269743A2063616E27AE
:10088000742064656C3A20253032580A0061646433
:100890005F6B65795F6269743A2063616E277420CB
:1008A0006164643A20253032580A003F00433E20FC
:1008B000004C25640A0074696D65725F726561643D
:1008C000333228293A202530346C580A006B657978
:1008D0006D61705F636F6E6669672E6E6B726F3AE3
:1008E0002025580A006B6579626F6172645F6964E4
:1008F0006C653A2025580A006B6579626F617264F5
:100900005F70726F746F636F6C3A2025580A0068CD
:100910006F73745F6B6579626F6172645F6C65643D
:100920007328293A2025580A000A092D205374619A
:10093000747573202D0A004743433A20342E392E14
:1009400032204156522D4C4942433A20312E382E06
:100950003073766E204156525F415243483A2061CF
:10096000767233350A004F5054494F4E533A204C5B
:100970005546412045585452414B455920434F4E0E
:10098000534F4C4520434F4D4D414E44204E4B520A
:100990004F20424F4F544C4F414445525F53495AA8
:1009A000450A004255494C443A2022302E362E3317
:1009B00036342D312D676538336533312D646972D6
:1009C000747922202832333A31303A3334204A7550
:1009D0006E2020362032303139290A005649443AF7
:1009E00020307846454544284B6579686976652905
:1009F000205049443A203078303030302855543433
:100A0000372E3229205645523A2030783030303156
:100A10000A00444553433A20416E20617765736F65
:100A20006D6520343025206B6579626F6172640AD0
:100A3000000A092D2056657273696F6E202D0A0019
:100A40000A092D20436F6E736F6C65202D0A455384
:100A5000432F713A09717569740A000A092D204DF6
:100A600061676963202D0A443A094465627567200D
:100A70004D65737361676520546F67676C650A58CD
:100A80003A094D6174726978204465627567204D3A
:100A90006F646520546F67676C65202D2053686F05
:100AA00077206B65797072657373657320696E204A
:100AB0006D617472697820677269640A4B3A094BF8
:100AC0006579626F61726420446562756720546F56
:100AD00067676C65202D2053686F77206B65797090
:100AE00072657373207265706F72740A4D3A0944AF
:100AF00065627567204D6F75736520546F67676C0D
:100B0000650A563A0956657273696F6E0A533A0957
:100B10005374617475730A433A0941637469766169
:100B2000746520436F6E736F6C65204D6F64650A4A
:100B300046312D4631303A09537769746368207421
:100B40006F204C6179657220302D39202846313074
:100B5000203D204C30290A302D393A0953776974E9
:100B6000636820746F204C6179657220302D390ADA
:100B700047524156453A0953776974636820746F48
:100B8000204C6179657220302028616C7465726E2A
:100B9000617465290A423A094A756D7020746F20A4
:100BA000426F6F746C6F616465720A4553433A0912
:100BB0004A756D7020746F20426F6F746C6F616442
:100BC00065722028616C7465726E617465290A45CE
:100BD0003A095072696E7420454550524F4D20536A
:100BE000657474696E67730A4253504143453A090C
:100BF000436C65617220454550524F4D0A4E3A098B
:100C00004E4B524F20546F67676C650A000A0025EF
:100C100075002E6E6B726F3A20000A002575002E4B
:100C2000737761705F6261636B736C6173685F623D
:100C300061636B73706163653A20000A002575007B
:100C40002E737761705F67726176655F6573633A73
:100C500020000A002575002E6E6F5F6775693A20C7
:100C6000000A002575002E737761705F72616C74E5
:100C70005F726775693A20000A002575002E737748
:100C800061705F6C616C745F6C6775693A20000A13
:100C9000002575002E636170736C6F636B5F746FFA
:100CA0005F636F6E74726F6C3A20000A00257500E6
:100CB0002E737761705F636F6E74726F6C5F6361C8
:100CC00070736C6F636B3A20000A00253032580055
:100CD0006B65796D61705F636F6E6669672E7261B7
:100CE000773A20000A002575002E6D6F7573653AFE
:100CF00020000A002575002E6B6579626F617264B1
:100D00003A20000A002575002E6D61747269783AE8
:100D100020000A002575002E656E61626C653A2020
:100D2000000A00253032580064656275675F636FA2
:100D30006E6669672E7261773A20000A0025750099
:100D400064656661756C745F6C617965723A2000E8
:100D50003F004E4B524F3A206F66660A004E4B5290
:100D60004F3A206F6E0A000A6D6F7573653A206FF7
:100D700066660A000A6D6F7573653A206F6E0A0029
:100D80000A6B6579626F6172643A206F66660A0069
:100D90000A6B6579626F6172643A206F6E0A000AAD
:100DA0006D61747269783A206F66660A000A6D6137
:100DB000747269783A206F6E0A000A64656275671A
:100DC0003A206F66660A000A64656275673A206FAA
:100DD0006E0A000A0A4A756D70696E6720746F208A
:100DE000626F6F746C6F616465722E2E2E200043EB
:100DF0003E2000436C656172696E67204545505224
:100E00004F4D0A006565636F6E6669673A0A005B5D
:100E1000735D004B6579626F6172642073746172F7
:100E2000742E0A005B575D005B535D005B525D00F2
:100E30000403300000000E03550054003400370056
:100E40002E003200000010034B006500790068009E
:100E500069007600650000000403090409025B00D4
:100E6000030100A0FA0904000001030101000921A7
:100E7000110100012240000705810308000A09044E
:100E8000010001030000000921110100012271008D
:100E90000705820320000A09040200020300000083
:100EA000092111010001222200070583032000010E
:100EB000070503032000011201100100000008EDE6
:100EC000FE00000100010203010631FF0974A101C7
:100ED0000975150026FF0095207508810209761511
:100EE0000026FF00952075089102C005010980A128
:100EF0000185031601002603001A81002A8300756C
:100F00001095018100C0050C0901A101850416019D
:100F100000269C021A01002A9C027510950181008E
:100F2000C005010906A1018505050719E029E71596
:100F3000002501950875018102050819012905950B
:100F400005750191029501750391010507190029A5
:100F5000EF1500250195F075018102C00501090614
:100F6000A101050719E029E715002501950875017C
:100F7000810295017508810105081901290595056A
:100F8000750191029501750391010507190029FF6B
:100F9000150026FF00950675088100C011241FBEAC
:100FA000CFEFD4E0DEBFCDBF04B603FE29C08091F1
:100FB000740290917502A0917602B0917702873009
:100FC000904BA740B04BE1F410927402109275025E
:100FD000109276021092770214BE84B7877F84BF86
:100FE0000FB6F894A89580916000886180936000A6
:100FF000109260000FBEE0916302F09164020994C8
:1010000011E0A0E0B1E0E0E7F1E602C005900D924A
:10101000A036B107D9F722E0A0E6B1E001C01D92E9
:10102000A437B207E1F70E94DC2A0C94B6300C9486
:101030000000FF93EF93E0916001F0916101309720
:1010400009F00995EF91FF910895FC018591803099
:1010500011F0EFDFFBCF0895FF27E0E230E247FF1A
:101060000CC0419597FF09C0EDE2609570958095A1
:101070009095611D711D811D911D27FF02C0219555
:1010800030E350E2AA27660F771F881F991FAA1F17
:10109000A41710F0A41B63955A95A9F7AA3008F07D
:1010A000A95FA05DAF93F395611571058105910569
:1010B00041F7ED3211F4EF93F395F21718F43F93E3
:1010C000F395FBCF8F91B5DFFA95E1F70895E9919C
:1010D000F9918591803021F0853219F0AADFF9CF9E
:1010E000089520E0E89455915532C1F3503311F43E
:1010F000689455915A3348F4505390F3220F022EBE
:10110000220F220F200D250FF4CF0EF42195899187
:101110009991533619F3533729F1533559F1BC01DD
:1011200088279927E8945C3621F4899199916894ED
:101130005591543639F446EF7EF077FF0DC08FEFAE
:101140009FEF0AC055374AE039F0583540E121F0A9
:10115000523642E009F00895FF93EF937DDFEF915F
:10116000FF91B7CFFF93EF93FC0181918030B9F3EA
:1011700060DFFBCFFF93EF9368DFF1CFDF93CF9377
:10118000CDB7DEB72596A3DFCF91DF9108950C94FC
:10119000D00D0C94D10D81E0089581E008950C9458
:1011A000CD081F93CF93DF9300D000D01F92CDB70F
:1011B000DEB749835A832091950189819A81211153
:1011C00012C0662349F00E941322182F682F8981CC
:1011D0009A810E94B22103C00E94E421182F6981E4
:1011E0007A81812F04C00E94132269817A810F9035
:1011F0000F900F900F900F90DF91CF911F910C9453
:101200004E0BFC01408151816281738184810C9479
:10121000D1080E94800E8FE39CE90197F1F700C08E
:1012200000000E94800E80E00E94D20D80FF04C06A
:101230000E9474230C94942508950E9409090E9429
:101240007A23811102C00E94F4230C94C7080C94E5
:10125000C90808950C9429090C942A0908950E943C
:10126000C51C0E942E092FEF84E39CE02150804092
:101270009040E1F700C000000C9494250F931F9359
:10128000CF93DF938C010E940109EC01B8010E9409
:10129000CF08882309F4F8C1B801CE010E94B51621
:1012A000882309F4F1C1CA3CFCE5DF0741F4F801E9
:1012B0008281882309F4E8C10E94AC12E5C1CB3CCD
:1012C0008CE5D80708F013C1C33C9CE5D90761F44D
:1012D000F8018281882309F4D7C10E949322827287
:1012E000E1F00E94AF14D0C1C43CECE5DE07C0F0D1
:1012F000C63C9CE5D90709F4CBC008F0DDC0C43C6E
:10130000FCE5DF0709F0CCC0F8018281882309F4ED
:10131000BBC10E949322827221F30E94A214B4C125
:10132000C531FCE5DF0708F07CC0C2308CE5D8078A
:1013300008F452C0F8018281882309F454C00E9445
:101340007A23811102C00E94F4230E948D2390E031
:101350009093660280936502FE01E350FC45E23102
:10136000F10530F4E65CFF4F809165020C945B3030
:1013700080916502816027C0826025C0846023C09F
:10138000806121C080621FC080641DC080681BC056
:101390008460886018C08E7F16C08D7F14C08B7FDC
:1013A00012C08F7E10C08F7D0EC08F7B0CC08F77D8
:1013B0000AC08B7F877F07C087FB222720F991E037
:1013C000922790FB87F980936502809165020E94C5
:1013D00091230E94C51C58C1C1159CE5D90751F045
:1013E000C130DC4579F0C801DF91CF911F910F9199
:1013F0000C94CB08F8018281882309F445C10E942E
:101400002F0942C1F8018281882309F43DC18091EE
:10141000190281608093190280E193E00E942508FF
:1014200033C1C631FCE5DF0739F50E949322282F2E
:10143000F801828140910E0150910F01882379F0CB
:101440002A7A91E009F490E090936201911102C030
:1014500069E201C065E3CA010E947D240AC080914F
:101460006201811102C069E201C065E3CA010E9404
:1014700088240E94DF2208C1C23CDC4509F0B3CFBA
:10148000F8018281882309F4FFC00E946215FCC024
:10149000F8018281882309F4F7C00E947012F4C019
:1014A000C53CDC4509F09FCFF8018281882309F40F
:1014B000EBC00E946312E8C0F8018281C83CFCE5E1
:1014C000DF0731F4882309F4DFC00E948E12DCC0EC
:1014D000C93CDC4530F4882309F4D6C00E947F1251
:1014E000D3C0882309F4D0C00E949D12CDC0C13D55
:1014F000ECE5DE0791F4F8018281882309F4C4C089
:101500000E94A7108F3028F00E94A710843108F4A1
:1015100004CF8FE00E94B214B7C0C23DFCE5DF07E4
:1015200008F05AC0CD3C8CE5D80739F4F801828127
:10153000882309F4A9C081E0EDCFCE3C9CE5D90712
:10154000C0F4CB3CECE5DE0741F4F801828188234E
:1015500009F49AC00E94AF1097C0CC3CDC4509F05A
:1015600042CFF8018281882309F48EC00E94C01006
:101570008BC0F8018281CF3CFCE5DF0771F4882342
:1015800009F482C00E94A710863028F00E94A7109C
:10159000883008F4C2CE86E0BDCFC03DDC4570F493
:1015A000882309F471C00E94A710823028F00E949D
:1015B000A710853008F4B1CE82E0ACCF882309F4BF
:1015C00063C00E94A710893028F00E94A7108E30B7
:1015D00008F4A3CE89E09ECFC53DECE5DE0739F4E3
:1015E000F8018281882309F44FC083E293CFC63D7E
:1015F000FCE5DF0740F5F8018281C33DFCE5DF072C
:1016000029F4882309F440C088E184CFC43DDC4537
:1016100068F48823C9F10E94A710853128F00E9440
:10162000A710873108F479CE85E174CF882361F162
:101630000E94A710893128F00E94A710823208F476
:101640006CCE89E167CFCD3DECE5DE0741F4F801D2
:1016500082818823C9F082E00E94862B15C0CE3D8E
:10166000FCE5DF0739F4F8018281882369F00E94E4
:10167000F4230AC0CC3DDC4509F0B5CEF8018281E7
:10168000882311F080E0E8CF80E0DF91CF911F91B7
:101690000F91089580E090E0089508959B0190E0F7
:1016A00060E370E00E941630FC01832F90E06CE054
:1016B00070E00E9416308E0F9F1FFC01E20FF11D9B
:1016C000EE0FFF1FE057FE4F859194910895880F0C
:1016D000991FFC01EF5DFC4F859194910895CF9384
:1016E000DF930E944E0B0E94300DEC01811520E526
:1016F000920708F03FC0811530E4930708F02AC133
:10170000883E910500F5803E910508F0A5C1883A14
:10171000910570F4853A910508F0A4C081309105D7
:1017200009F49AC108F44BC1049708F095C147C168
:101730008F3B910508F4A1C0803C910508F43FC19E
:10174000805C9109F9C0C11580E2D80758F4C11531
:1017500021E0D20708F080C1C03FD10508F42FC1B5
:10176000D0657AC1C11530E3D30708F0E9C0CE01D6
:101770009F70E2C0C11585E5D80708F047C0C115C4
:1017800024E5D20708F0FFC0C11532E5D30718F5EC
:10179000C11581E5D80708F0E0C02C2F237081E047
:1017A00090E002C0880F991F2A95E2F79C689E017D
:1017B000F4E036952795FA95E1F72370922BCF70D8
:1017C000C695C695D0E0A5E0CC0FDD1FAA95E1F740
:1017D000C82BD92B41C12C2F26952695CE0183707D
:1017E0009927C115D34508F0BDC030E075E0220F40
:1017F000331F7A95E1F7C1E0D0E002C0CC0FDD1FC6
:101800008A95E2F7C22BD32BDC6826C1C11589E586
:10181000D807A0F4C11528E5D20708F0B9C0C11552
:1018200036E5D30708F0CBC08C2F0E94AD0D8F7129
:10183000C82FD0E0DC2FCC27D0620EC1C1158AE5BD
:10184000D80708F4AAC0CE0190568115904208F03E
:10185000B6C08D2F8F710E94AD0DDD27D0628F71C4
:10186000D82BFAC0853A910509F4ACC0863A9105A7
:1018700009F0ABC0C2E8D0E4EFC0883A910509F4A2
:10188000A7C0893A910509F4A6C08A3A910509F4DE
:10189000A5C08B3A910509F4A4C08C3A910509F4CE
:1018A000A3C08B3B910509F4A2C08C3B910509F4C0
:1018B000A1C08D3A910509F4A0C0803B910509F4BF
:1018C0009FC08E3A910509F49EC08F3A910509F4A4
:1018D0009DC0813B910509F49CC0823B910509F4B0
:1018E0009BC0833B910509F49AC0843B910509F4A0
:1018F00099C0853B910509F498C0863B910509F490
:1019000097C0873B910509F496C0883B910509F47F
:1019100095C0893B910509F494C08D3B910509F46C
:1019200093C08E3B910509F492C08A3B910509F45E
:1019300091C0C0E0D4E490C00E94670BEC018CC061
:10194000CE019927D3FF03C0EC01D86C85C0EC0110
:10195000D06C82C0DF70D06A7FC0DC2FCC27C16F13
:10196000D06A7AC030E065E0220F331F6A95E1F754
:10197000C1E0D0E002C0CC0FDD1F8A95E2F7C22B98
:10198000D32BDA6869C0DC2FCC27C46FD06A64C05F
:10199000DC2FCC27C06FD06A5FC08C2F8F700E9465
:1019A000AD0D94E0D695C7959A95E1F7CF70D0E04C
:1019B000DC2FCC27D06A8F70806EC82B4DC0C0E062
:1019C000D0E04AC0C1E8D0E447C0C3E8D0E444C096
:1019D000C2EED4E441C0C9EED4E43EC0CAEED4E4C1
:1019E0003BC0C5EBD4E438C0C6EBD4E435C0C3EB90
:1019F000D4E432C0C4EBD4E42FC0C7EBD4E42CC091
:101A0000CCECD4E429C0CDECD4E426C0C3E8D5E4C2
:101A100023C0CAE8D5E420C0C2E9D5E41DC0C4E9AA
:101A2000D5E41AC0C1E2D6E417C0C3E2D6E414C0BC
:101A3000C4E2D6E411C0C5E2D6E40EC0C6E2D6E4E4
:101A40000BC0C7E2D6E408C0CFE6D4E405C0C0E7C7
:101A5000D4E402C0CAE2D6E4CE01DF91CF9108956A
:101A60008238910549F1B0F48133910509F458C0E9
:101A700048F48932910509F44EC08A32910509F47F
:101A800054C008958533910509F440C08933910508
:101A900099F00895833E910529F138F4803E91052F
:101AA00091F0823E9105A1F00895863E9105F9F0EE
:101AB000873E910531F108952091650220FD3AC0DD
:101AC00021FD38C008958091650280FD35C032C087
:101AD0008091650282FF32C08091650284FD30C032
:101AE00083EE39C08091650282FD28C0F5CF8091D8
:101AF000650283FF27C08091650284FD21C087EEC7
:101B00002AC08091650283FD1DC0F5CF80916502DA
:101B100085FD1AC01BC08091650285FD17C014C0E9
:101B20008091650286FD14C015C08091650286FD16
:101B300011C00EC080EE0FC089E30DC082EE0BC055
:101B400080E009C086EE07C089E205C085E303C0D6
:101B50008AE201C081E390E008959091650292FFCE
:101B60000DC0282F2871283019F4877F846006C0A3
:101B7000282F2471243011F48B7F886093FF0DC0CF
:101B8000282F2871283119F4877E846106C0282FF8
:101B90002471243111F48B7E886194FD877E089531
:101BA00008950895E82FF0E0EE0FFF1FED59FE4F66
:101BB000808191810895CF92DF92EF92FF920F93EF
:101BC0001F93CF93DF9381E393E00E94250883E680
:101BD000E82E81E0F82EC0E0D0E09CE2C92E93E030
:101BE000D92E03E213E0DF93CF93DF92CF920E94CE
:101BF000BE0889E293E00E942508F7018191919146
:101C00007F010E945A239F938F931F930F930E94EB
:101C1000BE0881E293E00E94250821968DB79EB709
:101C200008960FB6F8949EBF0FBE8DBFC430D10585
:101C3000D1F6DF91CF911F910F91FF90EF90DF9040
:101C4000CF900895E7E2F1E041E050E024E02E0F6C
:101C50009191A92FA295AF70B0E091963C91919788
:101C60009F70BA0102C0660F771F9A95E2F7CB0109
:101C70008095832391968C932E13EACFABE1B1E04C
:101C800041E050E02CE02A0F8D91E82FE295EF70B3
:101C9000F0E031A18F70BA0102C0660F771F8A95FC
:101CA000E2F7CB01962F9095932391A392A1892BD4
:101CB00082A32A13E9CF10926C0110926B0110924B
:101CC00064011092630110926E0110926D011092E6
:101CD0006601109265011092700110926F011092CE
:101CE00068011092670110927201109271011092B6
:101CF0006A011092690184E00E94180F0C941D097A
:101D00004F925F927F928F929F92AF92BF92CF92AB
:101D1000DF92EF92FF920F931F93CF93DF9327E20F
:101D2000422E21E0522EABE6B1E020E001E010E0CF
:101D30005D018D909C90119711961C921E92E2016C
:101D400089912E01E82FE295EF70F0E031A18F70BC
:101D5000A80102C0440F551F8A95E2F7CA01342B2F
:101D600031A342A1382F3095432342A350EA5A951C
:101D7000F1F79BE1C92E91E0D92E40E050E0E60159
:101D800079906E01672D62956F7070E0EB01E8A0AD
:101D90006D917C911197F12CD72DDF7002C0F594D5
:101DA000E794DA95E2F7E0FC08C07801042E02C05F
:101DB000EE0CFF1C0A94E2F702C0E12CF12C6E2914
:101DC0007F2911967C936E934F5F5F4F4C30510586
:101DD000B1F691A1392331A392A1892B82A3129646
:101DE00081E0F501408151818416950609F480E077
:101DF000282BF1E0A337BF0709F09ACF44E063E650
:101E000071E08BE691E00E94190F0E94270981E0A2
:101E1000DF91CF911F910F91FF90EF90DF90CF90C6
:101E2000BF90AF909F908F907F905F904F9008955C
:101E30000895FF920F931F93CF93DF93F82E092FEE
:101E4000162FD72FC42F222349F081E080937501EC
:101E50000E942C25909374018093730180917501E9
:101E60008823D9F080917301909174010E944425D8
:101E7000069798F0EF2DF02FA12FBD2F80E090E076
:101E80004C2F50E08417950734F4219131912D9314
:101E90003D930196F7CF10927501DF91CF911F917D
:101EA0000F91FF900895CF92DF92EF92FF920F93E0
:101EB0001F93CF93DF93E82F482F711104C0682F31
:101EC000742F842F6FC0262F30E0072F10E0C82E0C
:101ED000D12CC90166E070E00E941630EE24EA942D
:101EE000F12CB7010E943330EB01CB016BEA7FEF9D
:101EF0000E941630220F331F820F931FA82FAA0FA4
:101F0000A80FC701801B910BB6010E941630292F24
:101F1000F92FB0E0CD01B8010E941630692F70E0B2
:101F2000C701861B970BB6010E941630392FC701D7
:101F30008A1B9B0BB8010E941630692F70E0C70105
:101F4000861B970BB6010E941630C230D10579F07E
:101F50003CF42097C9F02197A9F49E2FE32F14C0D9
:101F6000C430D10559F03CF0269771F00BC0E22F38
:101F7000292F942F09C0932FE22F02C0E92F922F0F
:101F8000242F02C09F2F232FF0E0E55CF84F6491CF
:101F9000E92FF0E0E55CF84F7491E22FF0E0E55CAA
:101FA000F84F8491DF91CF911F910F91FF90EF90A7
:101FB000DF90CF9008950895CF93DF93762FE901B6
:101FC000682F842F0E94530F698378838A83DF915F
:101FD000CF91089580914202282F269530E0211557
:101FE000310519F48170826005C02532310524F075
:101FF0008170886480934202089588E090E00C9498
:102000007630CF93DF9300D000D0CDB7DEB7AB01F1
:10201000BC0149835A836B837C830E94EA0F498108
:102020005A816B817C8188E090E00F900F900F9037
:102030000F90DF91CF910C949430E2E4F2E083E0D2
:10204000808311828FEF8283838314826081718108
:10205000828193810C9401108091190280FF08C045
:102060008DE096E09F938F930E94BE080F900F9093
:102070008091190280FF0FC08091420281701F92EF
:102080008F9380EF95E09F938F930E94BE080F90EF
:102090000F900F900F908091190280FF0FC08091D8
:1020A000420286951F928F9385ED95E09F938F93C3
:1020B0000E94BE080F900F900F900F908091190210
:1020C00080FF0EC0809143021F928F938BEB95E0AF
:1020D0009F938F930E94BE080F900F900F900F90C8
:1020E0008091190280FF0EC0809144021F928F934D
:1020F00081EA95E09F938F930E94BE080F900F9006
:102100000F900F908091190280FF0EC080914502C0
:102110001F928F9387E895E09F938F930E94BE084C
:102120000F900F900F900F908091190280FF0EC0BA
:10213000809146021F928F938BE695E09F938F9339
:102140000E94BE080F900F900F900F9008958091FD
:10215000420280FF02C08695089580E00895809134
:102160004602833018F48F5F8093460260914202EA
:102170007091430280914402909145020C940110A9
:1021800080914602882319F0815080934602609125
:1021900042027091430280914402909145020C9456
:1021A00001108091790190E063E070E00E941630A8
:1021B000895B9D4F6091020170E02091420220FDF9
:1021C0000DC020E030E0F901E95BFD4F1182108283
:1021D00012822D5F3F4F28313105A9F70C94451627
:1021E0009091420290FF0FC020E030E0F901E95BDE
:1021F000FD4F8183608342832D5F3F4F283131053E
:10220000A9F70C94D1100895CF93DF9300D01F92BB
:10221000CDB7DEB79091420290FF0AC09E012F5FBA
:102220003F4F0E94DC0F4B8169818A810E94F01030
:102230000F900F900F90DF91CF910895CF93DF9380
:10224000EC01EC81F0E0EA5CF94F4491E2E4F2E069
:10225000628181810E9404118C818F5F8C83DF9168
:10226000CF910895CF93DF93EC01E2E4F2E0438154
:1022700062818C810E9404118C818F5F8C83DF913D
:10228000CF9108950F931F93CF93DF9300D01F92A8
:10229000CDB7DEB78C018091760181110AC09E0115
:1022A0002F5F3F4F4FEF6FEF0E94DC0F8A818093CB
:1022B0007601F8018481813051F028F0823061F498
:1022C000409176010AC08091760140E007C060919C
:1022D000760140E080E003C040E080E060E00E94E2
:1022E000F010F801248130E0C901019663E070E04C
:1022F0000E94473084830F900F900F90DF91CF9111
:102300001F910F9108955F926F927F928F929F928B
:10231000AF92BF92CF92DF92EF92FF920F931F93F3
:10232000CF93DF9300D000D0CDB7DEB7182F762E35
:10233000042F522E9091420290FFA7C0E92FE695FC
:10234000AE2FB0E0A55DBE4F8C91809381019E7F42
:10235000923061F49E012F5F3F4F812F0E94DC0F6E
:102360004B8169818A810E94F0105DC0823019F42E
:102370000091450258C0863019F41091430253C0B1
:102380008930D9F3893109F04EC0E9518E2F8095FB
:102390008170682EE695F0E0EA5CF84FC590D49025
:1023A00037E4A32E32E0B32EE12CF12CDD2446ECF1
:1023B000842E43E0942EC701B6010E94163023E01C
:1023C000969587952A95E1F7662011F0810F03C055
:1023D000212F281B822F9091190290FF13C0DF92AA
:1023E000CF921F926F921F928F93FF92EF929F92C4
:1023F0008F928C830E94BE080FB6F894DEBF0FBE8A
:10240000CDBF8C819501402F672D0E94DC0F3FEFDF
:10241000E31AF30A83E0A80EB11C98E0E916F10470
:1024200051F60E94D110109343027092440200931F
:1024300045025520C9F0609142027091430280919B
:102440004402909145020E940110809145021F9222
:102450008F93809144021F928F93809143021F9229
:102460008F9381EA93E008C01F920F931F927F928F
:102470001F921F938AE793E09F938F930E94BE0859
:102480000FB6F894DEBF0FBECDBF0F900F900F9028
:102490000F90DF91CF911F910F91FF90EF90DF9000
:1024A000CF90BF90AF909F908F907F906F905F90F4
:1024B0000895E2E4F2E09181282F4381628188E06F
:1024C000890F0C94831181E00C945912E2E4F2E03C
:1024D0009181282F4381628188EF890F0C948311A9
:1024E00081E00C946612E2E4F2E0628128E0620F7F
:1024F00008F46FEF282F438181810C94831181E0D0
:102500000C947312E2E4F2E0628128E0621B08F4AA
:1025100060E0282F438181810C94831181E00C9429
:102520008212E2E4F2E0438128E0420F08F44FEF28
:10253000282F628181810C94831181E00C94911287
:10254000E2E4F2E0438128E0421B08F440E0282F57
:10255000628181810C94831181E00C94A01220E0AF
:102560000C948311EF92FF921F93CF93DF93EC01B2
:1025700087E4E82E82E0F82E10E08C8197014091EC
:10258000450260914402810F0E94DC0F115E83E0DE
:10259000E80EF11C183F89F70E94D1108A819C81B6
:1025A00080FF02C09F5F01C091509C83DF91CF915B
:1025B0001F91FF90EF900895AF92BF92CF92DF925C
:1025C000EF92FF920F931F93CF93DF93FC018281D1
:1025D00080FF03C0BB24BA9402C0BB24B39447E479
:1025E000E42E42E0F42E09E412E0C0E0D0E0F8016D
:1025F00031971082F7011082F801108234E0C32E67
:10260000D12CA12C809178018A0D87FD885F082E3E
:10261000000C990BC817D90791F48091450290E0FE
:10262000B6010E94163095958795959587959701E7
:10263000482F60914402809143020E94DC0FAB0C52
:10264000F1E0CF1AD108F1F6219683E0E80EF11CF3
:102650000D5F1F4FC830D10551F60E94D1108091F7
:10266000780191E0B91206C0811102C087E006C06E
:10267000815004C090E0019687709927809378017B
:10268000DF91CF911F910F91FF90EF90DF90CF904E
:10269000BF90AF900895EF92FF920F931F93CF9347
:1026A000DF9380E090E0FC01E95BFD4F1182108236
:1026B0001282039688319105B1F787E4E82E82E013
:1026C000F82E09E412E0C0E0D0E080917701082EF6
:1026D000000C990BC817D90794F080910101082EBE
:1026E000000C990B8C179D0754F0970140914502FF
:1026F00060914402809143020E94DC0F07C0F80100
:1027000031971082F7011082F80110822196F3E0D0
:10271000EF0EF11C0D5F1F4FC830D105B1F60E94BE
:10272000D1108091000190917701980F90937701DB
:1027300020910101280F20930101121614F4973003
:102740001CF0819580930001DF91CF911F910F9133
:10275000FF90EF900895EF92FF920F931F93CF9306
:102760007C01FC01248135812F5F3F4F217033278D
:102770003583248307E412E0C0E08C2F8695F701AF
:1027800024813581A901480F511DCA01817065E579
:102790000E940D30980140914502609144020E94D0
:1027A000DC0FCF5F0D5F1F4FC83039F7CF911F91FE
:1027B0000F91FF90EF900C94D110EF92FF920F9336
:1027C0001F93CF93DF937C01C7E4D2E000E010E0D9
:1027D000F7018481043011051CF4882339F002C00C
:1027E000811104C09E014091450202C09E0140E05B
:1027F00060914402809143020E94DC0F0F5F1F4FE3
:1028000023960830110521F70E94D110F701248189
:1028100030E02F5F3F4F217033272483DF91CF912A
:102820001F910F91FF90EF9008956091420266957D
:1028300070E04BE050E083E091E00E946130892B32
:1028400019F481E0809382010E942C2590937B01F2
:1028500080937A018091190280FF08C081E693E09D
:102860009F938F930E94BE080F900F90089510922F
:1028700082018091190280FF08C088E493E09F9351
:102880008F930E94BE080F900F900895909142027E
:1028900090FF4CC09170811102C0926006C08532D9
:1028A00010F0986402C0880F982B90934202662320
:1028B00091F06091420270914302809144029091A4
:1028C00045020E9401108091420286951F928F93CB
:1028D00081EB94E007C08091420286951F928F930E
:1028E00083E994E09F938F930E94BE080F900F900E
:1028F0000F900F9060914202669570E04BE050E0BF
:1029000083E091E00E946130892B19F00E94371416
:1029100002C00E94151481E080937D014091450220
:1029200060914402809143020C94AF120895682F85
:1029300090914202969581E0890F853208F081E0FE
:102940000C94461481E00C949714682F90914202E5
:1029500096958FEF890F09F484E20C94461481E078
:102960000C94A51461E00C944614CF93DF93C2E459
:10297000D2E08881816088831F9281E08F9385E215
:1029800094E09F938F930E94BE080F900F900F903A
:102990000F9088818695DF91CF910C94B21460E0FE
:1029A0000C94461480918001811161C080911902BC
:1029B00081608093190284E595E09F938F930E9434
:1029C000BE08809119020F900F9080FF08C08EE31F
:1029D00095E09F938F930E94BE080F900F900E94E6
:1029E0007A23811110C08091190280FF08C086E10E
:1029F00095E09F938F930E94BE080F900F900E94C6
:102A0000F4230E941D100E94FD0F609342027093F8
:102A1000430280934402909345026E7FC1F48091FB
:102A2000190280FF08C08DEC94E09F938F930E9461
:102A3000BE080F900F900E941D100E94FD0F609322
:102A400042027093430280934402909345020E9495
:102A5000EA0F0E942C10109282018091420280FFA6
:102A600003C086950E94CF1481E080938001089571
:102A7000CF93DF93C2E4D2E088818E7F8883688120
:102A800079818A819B810E940110888181701F92C7
:102A90008F938DEE93E09F938F930E94BE080E94C8
:102AA00037142FEF80E792E0215080409040E1F70B
:102AB00000C000000F900F900F900F90DF91CF910A
:102AC0000C94D11080914202809581701F928F9357
:102AD0008CE594E09F938F930E94BE088091420200
:102AE0000F900F900F900F9080FD0C9438150C9460
:102AF000B5140F931F93CF93DF93809182018823A6
:102B000009F48CC080918101E0914202E695E81BB6
:102B1000E0937C01823049F4F0E0EE5CF94FE491FF
:102B2000CE2FD0E00EE111E149C0863049F4F0E04B
:102B3000E15DF94FE491CE2FD0E002E311E13EC018
:102B4000893051F4E695F0E0E45DF94FE491CE2F41
:102B5000D0E002EB12E132C08F3051F4E695F0E0A4
:102B6000E75DF94FE491CE2FD0E00CED12E126C0E5
:102B7000853149F4F0E0EA5DF94FE491CE2FD0E0E1
:102B80000BE413E11BC0883181F0833239F4E4E2B5
:102B9000F6E0C591D49102E411E110C0843251F401
:102BA000C4EFD1E00DED13E109C0C8EED3E00BEAAC
:102BB00013E104C0C0EDD7E00BED1FE080917D0173
:102BC000882389F010927D010E942C259E0120957A
:102BD0003095820F931F90937B0180937A0110921E
:102BE0007F0110927E0180917A0190917B010E9479
:102BF00044258C179D0790F0E0917A01F0917B01BC
:102C0000CE0FDF1FD0937B01C0937A018AE791E05A
:102C1000F801DF91CF911F910F910994DF91CF912E
:102C20001F910F91089528B1342F3095232338B187
:102C3000432B3FB7F894FC01680F791FE617F7079D
:102C400089F0819198E048B9000000C087FF28B959
:102C5000880F000000C000C000C028B900C09A95CD
:102C600091F7ECCF3FBF089527B1242B27B99B01E3
:102C7000220F331F620F731F0E94131687EC90E020
:102C80000197F1F700C00000089540E40C94341659
:102C90000F931F93CF93DF93C62FD42F022FFC01E6
:102CA00082818823C9F0609385010E942C2590932E
:102CB00084018093830180E28C0F883008F050C03B
:102CC000C77081E001C0880FCA95EAF7DF91CF9104
:102CD0001F910F910C94481A10918501161330C062
:102CE00080918301909184010E944425883C910544
:102CF00038F5C0E2CD0F1D17B9F080E2810F8830A2
:102D000040F4177081E001C0880F1A95EAF70E941D
:102D10004F1AC83048F481E09D2F977001C0880F8A
:102D20009A95EAF70E94481A802F0E94401AC830EC
:102D3000B8F4D77081E001C0880FDA95EAF70AC0CD
:102D400080E28C0F883060F4C77081E001C0880F8A
:102D5000CA95EAF7DF91CF911F910F910C944F1A0A
:102D6000DF91CF911F910F9108959C01CB01203FDE
:102D70004CE5340719F178F4283D4CE53407B9F0F7
:102D8000293D4CE5340731F1273D3C4531F526E23C
:102D900041EE61EE0FC0223F4CE53407B9F090F0F0
:102DA000233F3C45D1F427E246EE66EE03C027E21E
:102DB00045EE65EE0E94481680E0089526E240EE5A
:102DC00060EEF8CF27E244EE64EEF4CF26E242EE66
:102DD00062EEF0CF28E241E0ECCF1092850181E075
:102DE000089590938B0180938A010895E0918A0160
:102DF000F0918B01309721F00190F081E02D099442
:102E000080E00895EF92FF921F93CF93DF93FC0130
:102E1000A0918A01B0918B01109709F442C0809172
:102E20001A01882341F08091650287FF04C08081E8
:102E3000818385E08083EF011296ED91FC911397D9
:102E4000CE0109958091190282FF2BC080FF04C03A
:102E500083E498E00E94250818E08DE3E82E88E0DE
:102E6000F82E8091190280FF0BC088811F928F93EA
:102E7000FF92EF920E94BE080F900F900F900F905C
:102E8000115021961111EDCF8091190280FF09C0D8
:102E90008BE398E0DF91CF911F91FF90EF900C941E
:102EA0002508DF91CF911F91FF90EF900895209119
:102EB0008801309189018217930771F090938901FD
:102EC00080938801E0918A01F0918B01309721F085
:102ED0000680F781E02D09940895209186013091B4
:102EE00087018217930771F0909387018093860181
:102EF000E0918A01F0918B01309721F00084F185F7
:102F0000E02D09940895089508950C948417089568
:102F10000C9487170E9483170C94851781E00895FD
:102F20000E9423250E94220E0E94D4250E94D214C2
:102F30000C948817CF93C82F8091190282FF1EC06E
:102F400080FF04C08CE598E00E942508809119025A
:102F500080FF0CC01F92CF9387E598E09F938F93DB
:102F60000E94BE080F900F900F900F908091190251
:102F700080FF04C085E598E00E9425088C2FCF9142
:102F80000C942C094F925F927F928F929F92AF92F6
:102F9000BF92CF92DF92EF92FF920F931F93CF9346
:102FA000DF93CDB7DEB72A970FB6F894DEBF0FBE1A
:102FB000CDBF0E94800E0E948E17811111C08FEF2D
:102FC00089838A831B820E942C258160782F9D83B0
:102FD0008C8349815A816B818D810E947E1857C0F4
:102FE0009DE8C92E91E0D92E00E010E0AA24A39418
:102FF000B12C702E802F0E94D20D4C01F601419011
:1030000051906F01482659264114510431F40F5F45
:103010001F4F0430110569F7D2CF8091190281FD4D
:103020000E94DB0D20E030E07501022E02C0EE0CA4
:10303000FF1C0A94E2F7C70184219521892B09F12D
:103040002E837F828E209F2091E0892809F490E0D2
:1030500098870E942C258160782F9A8789874E81D6
:103060005F8168858A850E947E18000F111FF80114
:10307000E357FE4F80819181E826F926F182E082B4
:1030800006C02F5F3F4F2C30310571F6C0CF109135
:103090008C010E94F6161817D9F00E94F61680933C
:1030A0008C012A960FB6F894DEBF0FBECDBFDF911C
:1030B000CF911F910F91FF90EF90DF90CF90BF9035
:1030C000AF909F908F907F905F904F900C949A1745
:1030D0002A960FB6F894DEBF0FBECDBFDF91CF9119
:1030E0001F910F91FF90EF90DF90CF90BF90AF9026
:1030F0009F908F907F905F904F900895CF93DF9334
:10310000CDB7DEB72B970FB6F894DEBF0FBECDBF9D
:103110004F83588769877A878B87DE01119686E00F
:10312000FD0111928A95E9F785E0FE01379601903D
:103130000D928A95E1F749815A816B817C818D815D
:103140009E810E947E1F2B960FB6F894DEBF0FBEA5
:10315000CDBFDF91CF910895FC01808191810E94C4
:1031600054220895CF93DF931F92CDB7DEB7882303
:1031700009F423C1682F8238C1F40E94F61681FD3C
:103180001CC169E380910E0190910F010E947D2482
:103190000E94DF222FEF81EE94E02150804090408A
:1031A000E1F700C0000069E319C0833811F50E94FF
:1031B000F61680FD02C163E580910E0190910F012A
:1031C0000E947D240E94DF222FEF81EE94E02150A7
:1031D00080409040E1F700C0000063E580910E015F
:1031E00090910F010E9488240F90DF91CF910C9451
:1031F000DF228438C1F40E94F61682FDDEC067E447
:1032000080910E0190910F010E947D240E94DF2287
:103210002FEF81EE94E0215080409040E1F700C014
:10322000000067E4DBCF8CEF860F813A70F4862FC5
:1032300069830E945D2869818111BFC080910E0160
:1032400090910F010E947D24CFCF80E2860F8830BD
:1032500048F4677081E001C0880F6A95EAF70E9420
:103260009622C2CF8BE5860F833088F4653A29F029
:10327000663A31F083E890E005C081E890E002C052
:1032800082E890E00F90DF91CF910C94571788E57A
:10329000860F873108F091C0683A09F445C0693A51
:1032A00009F445C06A3A09F445C06B3A09F445C0CF
:1032B0006C3A09F445C06B3B09F445C06C3B09F41A
:1032C00045C06D3A09F445C0603B09F445C06E3A0B
:1032D00009F445C06F3A09F445C0613B09F445C0A3
:1032E000623B09F445C0633B09F445C0643B09F403
:1032F00045C0653B09F445C0663B09F445C0673BE2
:1033000009F445C0683B09F445C0693B09F445C070
:103310006D3B09F445C06E3B09F445C06A3B09F4B6
:1033200045C080E090E044C082EE90E041C089EE6C
:1033300090E03EC08AEE90E03BC085EB90E038C064
:1033400086EB90E035C083EB90E032C084EB90E0F8
:103350002FC087EB90E02CC08CEC90E029C08DEC66
:1033600090E026C083E891E023C08AE891E020C085
:1033700082E991E01DC084E991E01AC081E292E007
:1033800017C083E292E014C084E292E011C085E2AB
:1033900092E00EC086E292E00BC087E292E008C0A5
:1033A0008FE690E005C080E790E002C08AE292E0FC
:1033B0000F90DF91CF910C946D170F90DF91CF910B
:1033C0000895882309F45BC0682F823879F40E943D
:1033D000F61681FF54C069E380910E0190910F01B0
:1033E0000E947D240E94DF2269E310C08338B1F47B
:1033F0000E94F61680FF43C063E580910E01909114
:103400000F010E947D240E94DF2263E580910E015E
:1034100090910F010E9488240C94DF22843879F463
:103420000E94F61682FF2BC067E480910E019091F6
:103430000F010E947D240E94DF2267E4E7CF8CEF1A
:10344000860F813A18F380E2860F883048F467705F
:1034500081E001C0880F6A95EAF70E949C22DCCFC8
:103460008BE5860F833020F480E090E00C945717B2
:10347000685A673120F480E090E00C946D1708954D
:10348000CF93C82F0E94B2188C2FCF910C94E119C2
:10349000882321F00E9496220C94DF22089588232D
:1034A00021F00E949C220C94DF2208954F925F929B
:1034B0006F927F92BF92CF92DF92EF92FF920F9323
:1034C0001F93CF93DF937C01D62FC72FFC0105817B
:1034D00002950F70128111110E94B3220E948C225A
:1034E000882379F0112369F080E28D0F883048F04D
:1034F00082E00E942A230E948C2291E0B82EB926F5
:1035000001C0B12CCC2EC2948FE0C822D12CF60180
:10351000E45BFF4F0C945B308C2F807FCF7088234F
:1035200011F0C295C07F112399F0CC2309F48DC10D
:1035300080E28D0F883010F0D11104C08C2F0E94D2
:10354000962203C08C2F0E94A6220E94DF227DC1FA
:103550008D2F0E94E119CC2309F49CC180E28D0FCC
:10356000883010F0D11104C08C2F0E949C2203C01F
:103570008C2F0E94AC220E94DF228CC18C2F807F76
:10358000CF70803211F0C295C07FDD2319F0D130A9
:10359000C9F022C0112371F0002341F0013031F451
:1035A0000E94C6228C2B0E94CC2274C10E94C6228B
:1035B0008C2B04C1002319F0013009F46BC10E9467
:1035C000D52218C0112321F0063008F063C10EC0C7
:1035D000053008F05FC10EC0112351F0002331F017
:1035E000F701858180FF31C18F7085838C2FE6C004
:1035F00001113CC18C2FE8C08C2F86958695837075
:1036000090E0009719F0019761F044C1112321F077
:103610008D2F9C2F937002C080E090E00E9457177E
:1036200049C1112321F08D2F9C2F937002C080E09F
:1036300090E00E946D173EC18C2F837009F050C03E
:10364000111134C18D2F829586958770880F880F50
:103650009D2F9F70492E512C612C712C082E04C077
:10366000440C551C661C771C0A94D2F7D4FF14C076
:103670000FE010E020E030E0B901A80104C0440FE1
:10368000551F661F771F8A95D2F7CB01BA01609547
:1036900070958095909503C060E070E0CB01C69571
:1036A000C695C370D0E0C230D10561F0C330D105FA
:1036B00081F06429752986299729219771F00E9444
:1036C000C720F4C064297529862997290E94D9202A
:1036D000EDC00E94C720C301B2010E94B520E6C020
:1036E000112319F08C2F817001C08695882309F46D
:1036F000DDC08D2F829586958770880F880F9D2F4E
:103700009F70492E512C612C712C082E04C0440C42
:10371000551C661C771C0A94D2F7D4FF14C00FE026
:1037200010E020E030E0B901A80104C0440F551FAB
:10373000661F771F8A95D2F7CB01BA016095709505
:103740008095909503C060E070E0CB01C695C6956A
:10375000C3704C2F50E04230510569F043305105A1
:1037600089F064297529862997294130510571F01E
:103770000E948D219BC064297529862997290E9462
:103780009F2194C00E948D21C301B2010E947B2120
:103790008DC08D2F90E0FC01E05EF109E531F1056F
:1037A00008F04FC0E45AFF4F0C945B30DF708C2F51
:1037B0008F71112331F00E9414218D2F0E94481A1D
:1037C00069C00E9435218D2F0E944F1A63C01123BA
:1037D00041F0053008F05EC08C2F8F710E945A2195
:1037E00059C0063008F056C0F7CF112339F08C2F9E
:1037F0008F710E9414214EC01123C9F38C2F8F7139
:103800000E94352147C0112329F08C2F8F710E940F
:10381000FF2040C00E94FA203DC0112349F0CF7123
:103820008C2F0E94142163E08C2F0E94152332C03C
:1038300081E00E942A23023068F182E00E942A235C
:1038400029C0112331F0002391F28D2F0E94B2186C
:1038500021C0002399F2D93349F45FEF67EE73E09A
:10386000515060407040E1F700C000008D2F0E9471
:10387000E11910C04C2F4F706D2FC7010E944A0BE9
:103880000E94262017C04C2F4F706D2FC7010E9439
:103890004D0B10C088E0C816D10441F05CF0EAE09E
:1038A000CE1AD108F2E0CF16D10420F40E94F61609
:1038B0000E942C09BB20F1F00E94882280FD1AC0D2
:1038C000F70112820E9482220E941421C7010E94E5
:1038D000881C0E948222DF91CF911F910F91FF904F
:1038E000EF90DF90CF90BF907F906F905F904F9060
:1038F0000C943521DF91CF911F910F91FF90EF90A4
:10390000DF90CF90BF907F906F905F904F90089521
:103910000F931F93CF93DF93EC01888199812B81C3
:103920003C81232BB9F09F3F11F48F3F99F0CE01DA
:103930000E943E09882371F0688179818A810E9402
:103940005F228C010E94B1210E94B220B801CE01F9
:103950000E94561ADF91CF911F910F9108950E94F6
:10396000B3220E94C3220E94DF2280E090E00E94E6
:10397000571780E090E00C946D1780910E019091A4
:103980000F010E9493240C94AF1C0E94A3220C945C
:10399000BD1CE92FE295EF70F0E03297EE30F105B3
:1039A000B0F4EF58FF4F0C945B30803F91F018F467
:1039B000803E68F40EC0843F51F40BC0803E48F056
:1039C000813F29F406C093FB882780F9089580E0A1
:1039D000089581E008950E9454220E94C91C089510
:1039E000CF93DF9300D000D01F92CDB7DEB70F90FA
:1039F0000F900F900F900F90DF91CF910895CF937C
:103A0000DF9300D000D000D0CDB7DEB726960FB63A
:103A1000F894DEBF0FBECDBFDF91CF910895CF9355
:103A2000DF93C091960180919701C817A1F0D0E073
:103A3000CE0166E070E00E941630FC01E856FE4FB1
:103A40004081518162817381848195810E94FF1C34
:103A50002196C770E8CFDF91CF9108954091C801BA
:103A60005091C9016091CA017091CB018091CC0144
:103A70009091CD010C94FF1CCF93DF938091CD01E9
:103A800082958F7009F05CC08091CA01882309F487
:103A900057C020919601D09197014091C801C091E3
:103AA000C901E091CB01F091CC012D1709F448C078
:103AB00030E0309709F440C0CF3F11F44F3FE1F1BF
:103AC000C90166E070E00E941630DC01A856BE4FC6
:103AD00011968C911197C8132FC08C9148132CC04C
:103AE00012968C911297811127C013968D919C91FB
:103AF00014978E179F0708F401978E1B9F0B883C25
:103B00009105D0F48091CD018F7080618093CD01BB
:103B1000C90166E070E00E941630FC01E356FE4FDA
:103B200090819F709061908388EC91E00E94881C46
:103B3000DF91CF910C940F1D2F5F3F4F2770B5CFB2
:103B4000DF91CF910895BF92CF92DF92EF92FF92D3
:103B50000F931F93CF93DF93CDB7DEB761970FB667
:103B6000F894DEBF0FBECDBF8C0185E0F801DE0109
:103B70001D9601900D928A95E1F7D8014C9111960E
:103B80002C9111971296EC9012971396CD90DC9091
:103B900014975091C8016091C9018091CB01909117
:103BA000CC01009709F46EC16F3F19F45F3F09F42F
:103BB00069C1B090CA01BB2009F4C3C03091CD01E6
:103BC000C816D90628F0F601E81BF90BCF0104C08E
:103BD000809590958C0D9D1DFF24F394883C910554
:103BE00088F0F12C307F09F0CBC07C2DD98AC88AAF
:103BF000522F6E2D89890E94F01C88EC91E00E9462
:103C0000881CB4C0832F807F09F049C0621314C0A0
:103C1000541312C0E11010C03F7030613093CD01D9
:103C20000E942E1D88EC91E00E94881C8091CD019D
:103C3000D80115968C9331C0CD2831F12F3F11F466
:103C40004F3F11F1FE2CE1101FC0E0919601309121
:103C50009701E31709F45CC0F0E0CF0166E070E083
:103C60000E941630DC01A856BE4F11968C91119718
:103C7000281307C08C91481304C012968C918111AF
:103C800003C03196E770E5CFFE2CEE2009F425C184
:103C90008091CD0181608093CD01F12C1EC1621312
:103CA00008C0541306C0E11004C08091CD01D801B2
:103CB000C1C04D872E878D859E850E94EB1C882371
:103CC000E1F1EE20D1F12091CD01822F82958F700C
:103CD00090E0029774F08091C8019091C901988793
:103CE0008F831986DB86CA862C87CE0107960E94B1
:103CF000881C86E0F801A8ECB1E001900D928A954D
:103D0000E1F70E943C1D0E942E1DFF24F394E5C0A4
:103D10004D872E878D859E850E945422292F2295BE
:103D20002F7030E0223031050CF0CBC09F7009F0CD
:103D3000C5C0805E883008F4D0C0C8010E94881CCD
:103D4000E4CFC816D90608F453C0F601E81BF90BF6
:103D5000CF01883C910508F450C0F12C7C2DD98A04
:103D6000C88A522F6E2D89890E94F01CE8ECF1E080
:103D700086E0DF011D928A95E9F70E942E1DADC0F5
:103D8000621314C0541312C0E11010C08091CD0111
:103D9000F8018583C8010E94881C86E0E8ECF1E008
:103DA000DF011D928A95E9F7FB2C97C04D872E877E
:103DB0008D859E850E94EB1C882309F4BECFEE20E2
:103DC00009F4BBCF2091CD01822F82958F7090E0B6
:103DD00002970CF48ECF8091C8019091C9019A830B
:103DE00089831B82DD82CC822E83CE0101967FCF18
:103DF000809590958C0D9D1DACCFFE2CEE2009F486
:103E00009CCF62132EC054132CC02091CD0120FDF5
:103E10001FC0822F82958F70D9F0D80115962C93F0
:103E200015978F3049F08F5F982F9295907F822F52
:103E30008F70892B15968C93C8010E94881C86E090
:103E4000F801A8ECB1E001900D928A95E1F795CFC9
:103E500086E0F801A8ECB1E001900D928A95E1F7B7
:103E60003CC04D872E878D859E850E94EB1C81115D
:103E700040CF8091CD0181608093CD01C8010E9427
:103E8000881C2BC0EE2009F458CF4D872E878D85D6
:103E90009E850E94EB1CF82E882309F44ECF86E005
:103EA000F801A8ECB1E001900D928A95E1F788EC59
:103EB00091E00E94AC180E943C1D5FCF811139CF68
:103EC0000CC0243031050CF038CF9F7009F431CF8D
:103ED000F8019581907F09F02CCF8F2D61960FB658
:103EE000F894DEBF0FBECDBFDF91CF911F910F9130
:103EF000FF90EF90DF90CF90BF900895CF93DF9326
:103F0000CDB7DEB72C970FB6F894DEBF0FBECDBF8E
:103F10004F83588769877A878B879C87CE0107965E
:103F20000E94A31D882371F08F8198852A853B8587
:103F3000232B09F43FC09F3F09F068C08F3F09F071
:103F400065C038C086E0FE013796DE01119601900B
:103F50000D928A95E1F76F817885EA85FB85309728
:103F600049F17F3F11F46F3F29F18091970190E073
:103F70009C012F5F3F4F277033274091960150E0FF
:103F80002417350709F44BC069837A83FD83EC83DA
:103F900066E070E00E941630DC01A856BE4F96E045
:103FA000FE01319601900D929A95E1F720939701C9
:103FB0000E940F1D80919601909197018917E9F158
:103FC00090E066E070E00E94163088569E4F0E9496
:103FD000A31D882391F18091960190E066E070E046
:103FE0000E941630FC01E856FE4F408151816281EB
:103FF0007381848195810E94FF1C8091960190E0DD
:1040000001968770992780939601D4CF4F81588568
:1040100069857A858B859C850E94FF1CCBCF0E9489
:10402000C51C1092970110929601E8ECF1E086E031
:10403000DF011D928A95E9F7BDCF2C960FB6F89453
:10404000DEBF0FBECDBFDF91CF910895EF92FF92FB
:104050000F931F93CF93DF938C01892B09F46CC0CE
:10406000F12CEE24E394E8012196F8018491843741
:1040700040F4843008F051C0813081F0823019F171
:104080005BC0853709F444C0A8F19CE7980F9037CE
:1040900008F052C08F770E94E11941C00E5F1F4F98
:1040A000FE01C49180E28C0F883048F4C7708E2DD9
:1040B00001C0880FCA95EAF70E94B62214C08C2F5F
:1040C0000E94B2182DC00E5F1F4FFE01C49180E206
:1040D0008C0F883058F4C7708E2D01C0880FCA9598
:1040E000EAF70E94BC220E94DF221AC08C2F0E9495
:1040F000E11916C00E5F1F4FFE01C491CC2381F061
:104100008FE99FE00197F1F700C00000C150F6CFA2
:104110000E5F1F4FFE01F49003C00E94B2188E0183
:104120008F2D882309F49FCFEFE9FFE03197F1F756
:1041300000C000008150F5CFDF91CF911F910F910A
:10414000FF90EF90089508950C94A3200E94A4205E
:104150006093F0017093F1018093F2019093F30169
:104160000C94AF1C08950C94A6200F931F930091FC
:10417000F0011091F1012091F2013091F301602BD7
:10418000712B822B932B1F910F910C94A6200F93D0
:104190001F930091F0011091F1012091F2013091F3
:1041A000F30160237123822393231F910F910C94B9
:1041B000A6200F931F930091F0011091F10120911F
:1041C000F2013091F30160277127822793271F9115
:1041D0000F910C94A62008950C94EB200E94EC20E3
:1041E0006093EC017093ED018093EE019093EF01E9
:1041F0000C94AF1C60E070E0CB010C94EE200F93A8
:104200001F9341E050E060E070E08A019B0104C030
:10421000000F111F221F331F8A95D2F7C901B80161
:104220001F910F910C94EE200F931F9341E050E0EB
:1042300060E070E004C0440F551F661F771F8A9529
:10424000D2F78091EC019091ED01A091EE01B09137
:10425000EF018A019B01082B192B2A2B3B2BC9014B
:10426000B8011F910F910C94EE200F931F9341E022
:1042700050E060E070E004C0440F551F661F771FD8
:104280008A95D2F740955095609570958091EC0194
:104290009091ED01A091EE01B091EF018A019B0197
:1042A000082319232A233B23C901B8011F910F9129
:1042B0000C94EE200F931F9341E050E060E070E01B
:1042C00004C0440F551F661F771F8A95D2F780914F
:1042D000EC019091ED01A091EE01B091EF018A0106
:1042E0009B01082719272A273B27C901B8011F91DD
:1042F0000F910C94EE200F931F930091EC011091FD
:10430000ED012091EE013091EF01602B712B822B9A
:10431000932B1F910F910C94EE200F931F930091FC
:10432000EC011091ED012091EE013091EF0160233D
:104330007123822393231F910F910C94EE200F93EE
:104340001F930091EC011091ED012091EE0130914D
:10435000EF0160277127822793271F910F910C94FB
:10436000EE200895282F362F892F6CE00E940D3003
:10437000820F982F9770A1E001C0AA0F9A95EAF7D3
:1043800086958695869590E065E070E00E941630EF
:10439000FC01E253FE4F40E050E0632F70E090815B
:1043A0009B01042E02C0369527950A94E2F72170EE
:1043B0003327219529272A23292721934F5F5F4FF0
:1043C0004530510561F70895282F892F6CE00E9430
:1043D0000D30820FA82FA77086958695869590E060
:1043E00065E070E00E941630BC0140E050E080E0E3
:1043F000FA01E60FF71FE253FE4F208130E00A2E4C
:1044000002C0369527950A94E2F721703327042ECF
:1044100001C0220F0A94EAF7822B4F5F5F4F4530AD
:10442000510531F70895BF92CF92DF92EF92FF923C
:104430000F931F93CF93DF938C01C090F001D09026
:10444000F101E090F201F090F3018091EC01909184
:10445000ED01A091EE01B091EF01C82AD92AEA2A14
:10446000FB2ACFE1D0E0D701C6010C2E04C0B695DF
:10447000A795979587950A94D2F780FF07C0BC2E21
:10448000B8018C2F0E946F0B019719F4219758F7F0
:10449000B12C8B2DDF91CF911F910F91FF90EF9059
:1044A000DF90CF90BF900895CF93DF93EC010E94EF
:1044B0001322BE010E946F0BDF91CF9108951F93CD
:1044C000CF93DF93EB0190919501992321F0CB01DC
:1044D0000E94542213C0882349F0CB010E9413226A
:1044E000182F682FCE010E94B22104C0CB010E9478
:1044F000E421182FBE01812F0E946F0BDF91CF9115
:104500001F9108958091F40185958595859508956D
:104510008091F401877008959091F401977081E083
:1045200009F480E00895809118020895909118028E
:10453000892B809318020895809590911802892301
:10454000809318020895109218020895909117020E
:10455000892B8093170208958095909117028923E3
:1045600080931702089510921702089590911602F1
:10457000892B8093160208958095909116028923C5
:104580008093160208951092160208958091F50105
:10459000089508950C94C9229091F501981721F07F
:1045A0008093F5010C94CA2208958091F501882327
:1045B00029F01092F50180E00C94CA220895E09150
:1045C0000E01F0910F01809118028083E0910E019D
:1045D000F0910F01908180911702892B8083E091E7
:1045E0000E01F0910F01908180911602892B80833A
:1045F0008091F501882381F0E0910E01F0910F0187
:104600009081892B808380910E0190910F010E94EF
:10461000F62381110E94D52280910E0190910F0105
:104620000C94021708950C941223982F990F990F48
:10463000990F692B6093F4010E9414218091F40179
:104640008595859585950C9413231092F40180E04F
:104650000C9413232091F401809582238093F4011C
:10466000982F977079F430E0482F082E000C550BE6
:104670002417350739F08595859585950E94352154
:104680000C9425230895909361018093600108950F
:104690008295982F9C7C292F26952695982F937389
:1046A000990F990F922B892F8A7A86959575990F74
:1046B000892B08951F93CF93DF931F92CDB7DEB759
:1046C00099830E944823182F9981892F0E9448239B
:1046D000212F30E0322F2227A901482BCA010F9049
:1046E000DF91CF911F9108956FEF7FEF80E090E011
:1046F0000C94A03080E090E00E947C3021E08D3E60
:104700009E4F09F020E0822F089582E090E00C9403
:104710006E3083E090E00C946E3084E090E00C9476
:104720006E30682F84E090E00C948230AB01BC01C5
:104730008FE090E00C949430AB01BC0183E190E0F9
:104740000C94943060E070E0CB010C949C2360E00A
:1047500070E0CB010E9496230C94A2236DEE7EEFB5
:1047600080E090E00E94A03060E082E090E00E9453
:10477000823060E083E090E00E9482301092F0018D
:104780001092F1011092F2011092F30160E084E0C6
:1047900090E00E94823060E085E090E00E948230EC
:1047A00060E086E090E00E9482306FEF87E090E06A
:1047B0000E94823040E050E0BA0188E090E00E9420
:1047C000943060E08DE090E00E94823040E050E064
:1047D000BA0188E190E00E94943060E087E190E0C7
:1047E0000E9482300C94A7230C94AE23FC013296D5
:1047F00080911A01882331F08091650287FF02C001
:104800009EE101C096E080E0915028F021912223A2
:10481000D9F38F5FF9CF08959C01FC0132969FEF89
:1048200080E04191461789F09F3F19F4411101C082
:10483000982F8F5F8630A9F79F3F39F0F901E90F74
:10484000F11D97FDFA95628308950895FC01329653
:1048500008962081261301C010823196E817F907C7
:10486000C1F70895262F2695269526952E3170F4AA
:10487000FC01E20FF11D677021E030E001C0220F62
:104880006A95EAF78281282B228308958091190284
:1048900080FF0CC01F926F938DE898E09F938F93D9
:1048A0000E94BE080F900F900F900F900895262F32
:1048B0002695269526952E3178F4FC01E20FF11D00
:1048C000677021E030E001C0220F6A95EAF7209579
:1048D00082812823228308958091190280FF0CC0D1
:1048E0001F926F938FE698E09F938F930E94BE086C
:1048F0000F900F900F900F90089520911A0122238E
:1049000029F02091650227FD0C9432240C940C248C
:1049100020911A01222329F02091650227FD0C9491
:1049200057240C94262420911A01FC01329622234C
:1049300031F08091650287FF02C08EE101C086E000
:10494000DF011D928A95E9F7089508950C94A52436
:104950000E94A62480916B02843049F110921A02C1
:1049600020E488E190E00FB6F894A8958093600069
:104970000FBE2093600080E00E942C090E94A624B4
:1049800083B7817F846083BF83B7816083BF78945E
:10499000889583B78E7F83BF0FB6F894A8958091D2
:1049A0006000886180936000109260000FBE0895DF
:1049B00008950895CF930E94D8240E94800E0E94EB
:1049C000D924C0E08C2F0E94D20D892B29F4CF5F0F
:1049D000C430C1F780E001C081E0CF91089508950F
:1049E0000C94EF240E94C51C0E94F6160E942C090C
:1049F0000C94F0241F920F920FB60F9211248F93F4
:104A00009F93AF93BF9380911A02811113C080913D
:104A10005F0290916002A0916102B09162024196A2
:104A2000A11DB11D80935F0290936002A09361026B
:104A3000B0936202BF91AF919F918F910F900FBE83
:104A40000F901F90189582E084BD93E095BD9AEF7A
:104A500097BD80936E0008952FB7F89480915F0200
:104A600090916002A0916102B09162022FBF0895FF
:104A70002FB7F89460915F0270916002809161029B
:104A8000909162022FBF0895CF92DF92EF92FF9232
:104A90000F931F932FB7F89440915F0250916002DB
:104AA00060916102709162022FBF6A017B01EE2466
:104AB000FF248C0120E030E0C016D106E206F306A8
:104AC00010F4415051099A01281B390BC9011F915B
:104AD0000F91FF90EF90DF90CF90089578941F9200
:104AE0000F920FB60F9211248F939F93AF93BF93A2
:104AF00080915F0290916002A0916102B091620288
:104B00000196A11DB11D80935F0290936002A09356
:104B10006102B0936202BF91AF919F918F910F900C
:104B20000FBE0F901F901895E3E0F0E089E08093AE
:104B30005700E4918E2F867019F080E09FE30CC03F
:104B4000E2FF03C080E09EE307C0E1FF03C080E016
:104B50009CE302C080E098E3909364028093630238
:104B600081E08093E00080E28093D8001092C90039
:104B70008FE19EE40197F1F700C0000087E090EB21
:104B8000DC018093740290937502A0937602B09337
:104B900077029CE088E10FB6F894A89580936000B6
:104BA0000FBE90936000FFCF0E947A23811102C054
:104BB0000E94F4230E948523809319020E948D2372
:104BC00090E090936602809365020E948923682F8B
:104BD00070E080E090E00C94B320CF93C82F1F9238
:104BE0008F9381EB98E09F938F930E94BE0881E0A2
:104BF00090E0A0E0B0E0BC01CD0104C0660F771FDB
:104C0000881F991FCA95D2F70E94B3200F900F906A
:104C10000F900F90CF910C94C51CCF93482F50E06C
:104C2000FA013597EF33F10508F03BC2E158FF4F29
:104C30000C945B3084E09EE00E94250880E49DE0B7
:104C40000E9425080E9489231F928F938DE39DE087
:104C50009F938F930E94BE088BE39DE00E942508DE
:104C60000E948523C82F88E29DE00E9425081F929C
:104C7000CF9383E29DE09F938F930E94BE0881E2D1
:104C80009DE00E94250887E19DE00E9425088C2F69
:104C900081701F928F9384E19DE09F938F930E9478
:104CA000BE0882E19DE00E94250888E09DE00E9408
:104CB0002508C1FB882780F91F928F9385E09DE02E
:104CC0009F938F930E94BE0883E09DE00E94250879
:104CD00087EF9CE00E942508C2FB882780F91F927D
:104CE0008F9384EF9CE09F938F930E94BE0882EF86
:104CF0009CE00E94250889EE9CE00E942508C3FBE9
:104D0000CC27C0F91F92CF9386EE9CE09F938F93A0
:104D10000E94BE0884EE9CE00E9425080E948D231C
:104D2000C82F80ED9CE00E9425081F92CF938BEC4A
:104D30009CE09F938F930E94BE0889EC9CE00E94A8
:104D4000250880EB9CE00E9425088C2F81701F9223
:104D50008F938DEA9CE09F938F930E94BE088DB73E
:104D60009EB780960FB6F8949EBF0FBE8DBF8BEA9C
:104D70009CE00E94250884E99CE00E942508C1FB74
:104D8000882780F91F928F9381E99CE09F938F93EE
:104D90000E94BE088FE89CE00E9425088DE79CE0F9
:104DA0000E942508C2FB882780F91F928F938AE70B
:104DB0009CE09F938F930E94BE0888E79CE00E942E
:104DC000250886E69CE00E942508C3FB882780F919
:104DD0001F928F9383E69CE09F938F930E94BE085F
:104DE00081E69CE00E94250887E59CE00E9425085A
:104DF000C4FB882780F91F928F9384E59CE09F93E2
:104E00008F930E94BE0882E59CE00E94250880E402
:104E10009CE00E942508C5FB882780F91F928F938C
:104E20008DE39CE09F938F930E94BE088BE39CE0F0
:104E30000E9425088FE19CE00E942508C6FB882778
:104E400080F91F928F938CE19CE09F938F930E9437
:104E5000BE088AE19CE00E94250882E19CE00E9455
:104E60002508C7FBCC27C0F91F92CF938FE09CE0A9
:104E70009F938F930E94BE088DE09CE00E942508BE
:104E80008DB79EB74C960FB6F8949EBF0FBE8DBFE0
:104E900006C083EF9DE00E9425080E94F423C1E034
:104EA00005C18BE59AE07FC080911902817F8E7FDA
:104EB0008093190280E49AE00E9425088FEE9DE01D
:104EC0000E94250881E080931B02E9CF0E94C51C47
:104ED00083ED9DE00E9425089FEF23ED80E3915034
:104EE00020408040E1F700C000000E949425D7CF09
:104EF00080911902C82FC095C170C0FB80F98093C2
:104F00001902CC2319F087EC9DE0BDC08AEB9DE02F
:104F10000E94250880911902897F877F809319025A
:104F2000BECF9091190291FBCC27C0F981E0C82730
:104F3000892FC0FB81F980931902CC2319F08DEAE7
:104F40009DE027C08FE99DE02EC09091190292FB51
:104F5000CC27C0F981E0C827892FC0FB82F9809354
:104F60001902CC2319F080E99DE013C080E89DE090
:104F70001AC09091190293FBCC27C0F981E0C82791
:104F8000892FC0FB83F980931902CC2351F084E769
:104F90009DE00E942508809119028160809319028A
:104FA00085C087E69DE00E94250879CF81E39AE0DD
:104FB0000E94250882E19AE00E9425088CED99E084
:104FC0000E94250883EA99E00E94250886E699E078
:104FD0000E94250887E399E0E6CF89E299E00E94E4
:104FE00025080E94F6161F928F938FE099E09F93F9
:104FF0008F930E94BE0880911A011F928F9388EFB1
:1050000098E09F938F930E94BE08809140021F9268
:105010008F9385EE98E09F938F930E94BE088091B6
:10502000650287FB882780F91F928F938DEC98E0AB
:105030009F938F930E94BE080E9438259F938F9361
:105040007F936F9386EB98E09F938F930E94BE08A7
:105050008DB79EB746960FB6F8949EBF0FBE8DBF14
:105060001ECF0E94C51C9091650297FBCC27C0F90A
:1050700081E0C827892FC0FB87F980936502CC2384
:1050800029F08DE59DE00E94250810C082E59DE095
:105090008ACF895303C08D5101C080E00E94ED2565
:1050A000FECE80E59DE00E942508C0E08C2FCF91C8
:1050B000089580E0089580E00895CF93C82F8091EF
:1050C0001B02882319F0813031F038C00E949322EE
:1050D0008232B1F504C00E949322823261F48C2F97
:1050E0000E945928811104C08C2F0E940D2624C0D3
:1050F00081E090E021C08C2F0E945B2881111BC0B1
:10510000C43189F018F4CB3029F010C0C93259F0FD
:10511000C83361F480E49AE00E9425088DEA98E0A3
:105120000E94250808C010921B020CC08BEA98E070
:105130000E94250807C081E0817006C010921B0202
:1051400080E002C080E0F8CFCF91089580913F02C7
:10515000089508959FB7F89410921E029FBF9091F2
:105160006B02943009F057C09091E9009F70309124
:10517000EC00232F217030FD20E8922B23E02093B8
:10518000E9002091EB0020FF43C02091EE0027FFB3
:105190003FC020911C02222321F02091E80025FF2E
:1051A00037C010921C0226E03091E80035FD15C092
:1051B00030916B02343061F53091EB0035FD28C041
:1051C000215021F481E080931C0222C0EFE9FFE02E
:1051D0003197F1F700C00000E7CF8093F100809194
:1051E000E80085FD0AC08091E80080FFFCCF809137
:1051F000E8008E778093E80006C08FB7F89421E02E
:1052000020931E028FBF9F709093E90080E0089565
:105210009F709093E9008FEF08950F931F93CF93A2
:10522000DF9300D01F92CDB7DEB78C010E94962B82
:10523000823011F0843021F584E089831B830A8356
:1052400082E08093E9008FEF9091E800815095FD16
:1052500006C095ED9A95F1F700008111F5CF809188
:10526000E80085FF0DC040E050E063E070E0CE0153
:1052700001960E94B32B8091E8008E778093E8001E
:105280000F900F900F90DF91CF911F910F91089584
:10529000CF93DF9300D01F92CDB7DEB720916B0282
:1052A000243031F523E02983805891099B838A8338
:1052B00082E08093E9008FEF9091E800815095FDA6
:1052C00006C095ED9A95F1F700008111F5CF809118
:1052D000E80085FF0DC040E050E063E070E0CE01E3
:1052E00001960E94B32B8091E8008E778093E800AE
:1052F0000F900F900F90DF91CF910895CF93DF9390
:10530000EC010E94962B823011F08430D9F5809107
:105310001A01882339F08091650287FF03C060E29B
:1053200082E002C068E081E08093E9008FEF909115
:10533000E800815095FD06C095ED9A95F1F70000C3
:105340008111F5CF8091E80085FF1CC080911A0182
:10535000811105C040E050E068E070E003C070E0FB
:1053600040E050E0CE010E94B32B8091E8008E77A0
:105370008093E80080E2FE01AFE1B2E001900D927F
:105380008A95E1F7DF91CF9108958CE29EE00C942D
:10539000250888E29EE00C94250884E29EE00E94A5
:1053A00025080C94F22420911D022F5F822F62E3C6
:1053B0000E942730992319F020931D02089510921E
:1053C0001D0280911E02882371F180916B0284304E
:1053D00041F58091E9008F702091EC00922F91703F
:1053E00020FD90E8892B93E09093E9009091EB00E9
:1053F00090FF14C09091EE0097FF10C09091E800CC
:1054000095FF03C01092F100F9CF9091E80090FF52
:1054100005C09091E8009E779093E8008F7080938C
:10542000E90010921E02089542E061EC81E00E94C2
:10543000BC2C42E261EC82E00E94BC2C42E261ECB6
:1054400083E00C94BC2C80916D02833009F45CC025
:1054500030F4813071F0823009F495C008958A30BB
:1054600009F481C08B3009F467C0893009F0A3C00A
:1054700020C080916C02813A09F09DC08091E800C3
:10548000877F8093E8008091700290917102892B50
:1054900021F460E28FE192E003C060E080E090E000
:1054A00070E00E94FE2B8091E8008B778093E800EB
:1054B000089580916C02813209F07DC08091700264
:1054C00090917102029708F076C08091E800877F82
:1054D0008093E8008091E80082FD05C080916B0216
:1054E0008111F8CF68C08091F200823029F4809158
:1054F000F1008B7F813021F48091F10080933F0295
:105500008091E8008B7753C080916C02813A09F05A
:1055100052C08091700290917102892B09F04BC0AA
:105520008091E800877F8093E8008091E80080FF09
:10553000FCCF80911A0136C080916C028132D9F57E
:105540008091700290917102892BA9F58091E800F9
:10555000877F8093E8000E94F12C80916E028093F7
:105560001A010C94C51C80916C02813221F5809146
:10557000E800877F8093E8000E94F12C80916F0201
:1055800080934002089580916C02813AA1F4809149
:10559000E800877F8093E8008091E80080FFFCCFDF
:1055A000809140028093F1008091E8008E77809393
:1055B000E8000C94F12C089584B7877F84BF0FB660
:1055C000F894A895809160008861809360001092A3
:1055D00060000FBE80E880936100109261000E941D
:1055E0008A170E94422D0E94952D8091E2008460CE
:1055F0008093E2008AEA98E20E94432378940E9412
:10560000F22F0E94901780E191E00E94F11683E151
:105610009EE00E94250880916B02853089F48FE01E
:105620009EE00E9425080E94A82480916902882398
:1056300091F30E94DA24882371F30E949D2BEBCF13
:105640000E94C2170E947915E6CF0C94272B292FB0
:10565000332723303105C9F064F42130310581F05E
:105660002230310509F049C08BE590E02CE53EE0A1
:1056700048C02132310521F12232310571F13DC09E
:1056800082E190E027EB3EE03CC099278130910514
:1056900071F02CF4892B89F5E8E5FEE00DC082302D
:1056A000910541F0039749F5E0E3FEE005C0E6E42B
:1056B000FEE002C0E6E3FEE0849190E09F0121C09D
:1056C00063307105D0F4660F771FFB01E75AFE4F78
:1056D0002081318189E090E014C06330710568F465
:1056E000FB01EE0FFF1FED5AFE4F20813181FB01C0
:1056F000E05BFE4F808190E004C080E090E020E01D
:1057000030E0FA013183208308950895CF93C82FA4
:105710000E94852BC0934102CF91089580916B0226
:10572000843011F081E0089582E008958091410273
:10573000811102C00C948E2B089584E089BD86E00F
:1057400089BD09B400FEFDCF8091D8008F7D809384
:10575000D8008091E00082608093E0008091E000BA
:1057600081FDFCCF0895CF92DF92EF92FF920F93CD
:105770001F93CF93DF93EC018B016A010E94102DE0
:10578000811133C0C114D10439F0F60180819181B7
:10579000081B190BC80FD91FE12CF12C011511059D
:1057A00019F18091E80085FD16C08091E8008E77A0
:1057B0008093E800C114D10449F0F6018081918101
:1057C000E80EF91EF182E08285E00FC00E94102DE4
:1057D000882321F30AC089918093F10001501109B7
:1057E000FFEFEF1AFF0ADACF80E0DF91CF911F9130
:1057F0000F91FF90EF90DF90CF900895209172026B
:10580000309173022617370748F06115710539F496
:105810002091E8002E772093E80001C0B90140E014
:105820006115710591F120916B02222309F440C0AA
:10583000253009F43FC02091E80023FD3DC02091B0
:10584000E80022FD2FC02091E80020FFE9CF209141
:10585000F20030E0FC01CF016115710559F02830EC
:10586000310540F481918093F100615071092F5FFF
:105870003F4FF1CF41E02830310509F040E0209161
:10588000E8002E772093E800CBCF4111CCCF0AC09F
:1058900080916B02882361F0853061F08091E8008F
:1058A00083FD0AC08091E80082FFF2CF80E0089576
:1058B00082E0089583E0089581E0089520917202C6
:1058C000309173022617370748F06115710539F4D6
:1058D0002091E8002E772093E80001C0B901FC0177
:1058E00020E06115710579F180916B02882309F43C
:1058F0003DC0853009F43CC08091E80083FD3AC08A
:105900008091E80082FD2CC08091E80080FFE9CF03
:105910008091F20090E06115710559F08830910591
:1059200040F424912093F100319661507109019661
:10593000F2CF21E0089709F020E08091E8008E770F
:105940008093E800CECF2111CFCF0AC080916B02A7
:10595000882361F0853061F08091E80083FD0AC002
:105960008091E80082FFF2CF80E0089582E0089500
:1059700083E0089581E00895982F953058F590932D
:10598000E900981739F07091EC002091ED005091EA
:10599000F00003C0242F762F50E021FF19C0309172
:1059A000EB003E7F3093EB003091ED003D7F309374
:1059B000ED003091EB0031603093EB007093EC0020
:1059C0002093ED005093F0002091EE0027FF07C0D8
:1059D0009F5FD3CF8F708093E90081E0089580E0CE
:1059E000089580916C0287FF11C08091E80082FDCC
:1059F00005C080916B028111F8CF11C08091E80041
:105A00008B770BC080916B02882349F08091E8006E
:105A100080FFF8CF8091E8008E778093E8000895AA
:105A20002091E4003091E50095E64091EC00842F50
:105A3000817040FF22C08091E80080FD1CC08091F1
:105A40006B02882391F0853091F08091EB0085FD09
:105A500010C04091E4005091E5004217530729F32C
:105A60009A01915011F784E0089582E0089583E04F
:105A7000089581E0089580E008954091E80042FF94
:105A8000DECF08950E949F2D0E94A22DE0EEF0E04F
:105A9000808181608083E8EDF0E080818F77808372
:105AA00019BCE3E6F0E080818160808310926A0295
:105AB00008950E949F2D0E94A22D8091D8008F777B
:105AC0008093D8008091D80080688093D80080911E
:105AD000D8008F7D8093D80084E089BD86E089BDA1
